:020000040800F2
:10000000B012002015020008950D0008BF09000875
:10001000A10C00083D050008611B0008000000005D
:100020000000000000000000000000009114000823
:10003000AD0500080000000019120008CF160008E6
:10004000711B00082F0200082F0200085514000839
:100050002F0200082F020008AF0500082F02000839
:10006000C3050008D3050008E30500082F020008B7
:100070002F0200082F0200082F0200082F0200089C
:100080002F0200082F0200082F0200082F0200088C
:100090002F0200082F0200082F020008F5050008B3
:1000A0002F0200082F0200082F0200082F0200086C
:1000B00059170008711700082F0200082F020008C6
:1000C0002F0200082F0200082F0200082F0200084C
:1000D0002F020008AD1900082F020008351A000889
:1000E0002F0200082F0200082F0200082F0200082C
:1000F0002F0200082F0200082F0200082F0200081C
:100100002F0200082F020008091800082F0200081B
:100110002F0200082F0200082F0200082F020008FB
:100120002F0200082F0200082F0200082F020008EB
:1001300000F002F800F05EF80AA090E8000C82449B
:100140008344AAF10107DA4501D100F053F8AFF278
:10015000090EBAE80F0013F0010F18BFFB1A43F0A5
:1001600001031847403000006030000010F8013BE8
:100170000A4413F0030408BF10F8014B1D1108BF17
:1001800010F8015B641E05D010F8016B641E01F8C5
:10019000016BF9D1002D15D010F8014B03F00C03C1
:1001A0000C2BA1EB04040ABF10F8013BA4EB831451
:1001B000A4EB032405F1010314F8016B5B1E01F8A5
:1001C000016BF9D5914238BF10F8013BD1D370478C
:1001D0000023002400250026103A28BF78C1FBD850
:1001E000520728BF30C148BF0B6070471FB51FBD05
:1001F00010B510BD00F038F81146FFF7F7FF01F019
:1002000071FD00F056F803B4FFF7F2FF03BC01F0F4
:10021000C1FC00000948804709480047FEE7FEE7A7
:10022000FEE7FEE7FEE7FEE7FEE7FEE7FEE7FEE7A6
:1002300004480549054A064B70470000F9160008B6
:1002400031010008B00C0020B0120020B00E0020D8
:10025000B00E00207047704770477047704700002D
:1002600000487047500C00207546FFF7F9FFAE4676
:1002700005006946534620F00700854618B020B5B2
:10028000FFF7D6FFBDE820404FF000064FF0000713
:100290004FF000084FF0000B21F00701AC46ACE82E
:1002A000C009ACE8C009ACE8C009ACE8C0098D469B
:1002B000704710B50446AFF300802046BDE81040FB
:1002C000FFF7A1BF21B1826842F00102826003E022
:1002D000826822F0010282607047000010B5044677
:1002E0001248844208D10121401500F0C3FF0021CB
:1002F000601500F0BFFF17E00D48844208D10121CE
:10030000001500F0B7FF0021201500F0B3FF0BE04F
:100310000848844208D10121C80300F0ABFF002146
:100320004FF4004000F0A6FF10BD00000024014083
:1003300000280140003C0140014600208A6802F08C
:1003400004020AB1012000E0002070470146C86C99
:1003500080B270470246002013680B400BB10120A9
:1003600000E000207047014600208A6802F0080281
:100370000AB1012000E000207047000030B50246BD
:100380000020002350680F4C20400D790C6844EA8F
:1003900005242043506090680B4C2040D1E9025462
:1003A0002C434D7944EA450420439060D06A20F400
:1003B00070000C7C641EE4B2234340EA0350D06218
:1003C00030BD0000FFFEF0FFFDF7F1FFF0B5044681
:1003D0000D4600200021092D11DDE068A5F10A0677
:1003E00006EB4607072606FA07F18843A5F10A0639
:1003F00006EB460603FA06F10843E0600CE02069CC
:1004000005EB4507072606FA07F1884305EB450685
:1004100003FA06F108432061072A0FDA606B561EC3
:1004200006EB86071F2606FA07F18843561E06EBE1
:10043000860605FA06F10843606322E00D2A0FDA0A
:10044000206BD61F06EB86071F2606FA07F18843A6
:10045000D61F06EB860605FA06F10843206310E076
:10046000E06AA2F10D0606EB86071F2606FA07F1E1
:100470008843A2F10D0606EB860605FA06F108434D
:10048000E062F0BD816841F008018160704721B1F0
:10049000826842F4A002826003E0826822F4A00233
:1004A00082607047816841F00401816070470000FC
:1004B00000B587B001214FF4017000F0CBFE4FF47E
:1004C000004000F0ABFE0220ADF8040000208DF8E3
:1004D000070001A9174800F05FF91748FFF7FEFE73
:1004E000002002908DF80C008DF80D004FF4602074
:1004F00004900020059001208DF8180002A90E48F4
:10050000FFF73CFF01210C48FFF7DCFE0A48FFF72C
:10051000B9FF00BF0848FFF726FF0028FAD10648B8
:10052000FFF7C0FF00BF0448FFF706FF0028FAD11D
:1005300007B000BD000801400024014000BFFEE7F5
:1005400038B50025002440202023032210210090EC
:10055000144801F0A0FD23E01348006818B1681C9E
:10056000C5B200240DE0601CC4B2032C09DD40209C
:1005700020230322102100900A4801F068FD00208A
:1005800038BD1E2001F036FB642D09DB40202023FE
:10059000032210210090034801F07DFD0120EFE7C8
:1005A000DAE700000018014000012142704710B551
:1005B000012000F06DF8FFF7C3FF08B101F088F8E3
:1005C00010BD10B50A2001F015FB042000F060F802
:1005D00010BD10B50A2001F00DFB082000F058F8FE
:1005E00010BD10B50A2001F005FB102000F050F8F6
:1005F00010BD00002DE9F0410A2001F021FB802010
:1006000000F04CF8002839D000214FF0804001F074
:100610004BF90121880701F01EF900BF802118481D
:1006200000F08EF90028F9D100214FF0804001F050
:1006300012F94FF0804001F01AF94FF4AA7100FB53
:1006400001F4204601F0D6FE054600220D4B01F0D4
:1006500079FD074601F044FD0B49086000210A4876
:10066000006802F0D5F803D201200849086002E0D2
:10067000002006490860802000F00AF8BDE8F081FB
:100680000010014000006940380B00202C0B0020B6
:100690000149086070470000140401400146002031
:1006A0000022074B1B6803EA0102054B14331B6849
:1006B0000B4013B10AB1012000E000207047000098
:1006C00000040140002123498279002A3AD00A46D9
:1006D000126803689A430B461A600A1D1268036881
:1006E0009A430B1D1A60027911440A6803681A4381
:1006F0000A60184A0832126803689A43154B083397
:100700001A601A1D126803689A43124B0C331A6060
:100710004279102A0ED11A1F126803681A430D4B32
:1007200008331A601A1D126803681A43094B0C3308
:100730001A600DE00749427911440A6803681A43B8
:100740000A6005E0027911440A6803689A430A6066
:10075000704700000004014030B500228B071C0FD9
:100760000F2303FA04F20B4B8C1053F824309343FD
:10077000084C8D1044F8253023468C1053F8243053
:100780008C07240F00FA04F42343024C8D1044F824
:10079000253030BD080001402DE9F041024600251A
:1007A0000026002000230024002791F803C00CF04D
:1007B0000F0591F803C00CF0100CBCF1000F03D032
:1007C00091F802C04CEA050591F800C0BCF1000F99
:1007D00031D0146800202BE04FF0010C0CFA00F32C
:1007E000B1F800C00CEA03069E4220D183004FF00E
:1007F0000F0C0CFA03F7BC4305FA03FC4CEA0404A3
:1008000091F803C0BCF1280F06D14FF0010C0CFA8F
:1008100000FCC2F814C00AE091F803C0BCF1480F14
:1008200005D14FF0010C0CFA00FCC2F810C0401CBE
:100830000828D1D31460B1F800C0BCF1FF0F34DD3B
:10084000546800202EE000F1080C4FF0010808FA6F
:100850000CF3B1F800C00CEA03069E4221D18300DC
:100860004FF00F0C0CFA03F7BC4305FA03FC4CEAFB
:10087000040491F803C0BCF1280F05D100F1080C65
:1008800008FA0CF8C2F8148091F803C0BCF1480FC4
:1008900007D100F1080C4FF0010808FA0CF8C2F873
:1008A0001080401C0828CED35460BDE8F0810000C1
:1008B000F0B50A46002300240021002500F0004680
:1008C000B6F1004F02D11D4EF16901E01B4E716877
:1008D000C0F3034583B200F44016B6F5401F08D1BB
:1008E00021F07061154E766826F07066134F7E60B9
:1008F00012E000F48016B6F5801F06D1032606FA32
:1009000005F4A14341F0706106E0460D360103FA9B
:1009100006F6B14341F0706122B1460D360103FA8B
:1009200006F6314300F00046B6F1004F02D1034E07
:10093000F16101E0014E7160F0BD00000000014076
:100940000246002093680B400BB1012000E000201C
:1009500070474161704701617047000010B504465F
:100960000723012221460948FFF730FD01210748EE
:10097000FFF78DFD00BF02210448FFF7EBFC0028C4
:10098000F9D00248FFF7E2FC10BD0000002401404E
:100990002DE9F04107460C460025002608E03846C0
:1009A000FFF7DCFF0544052001F024F9701CC6B2F6
:1009B000A642F4DBB5FBF4F080B2BDE8F08100BFE5
:1009C000FEE7000008B50121402000F043FC0C20A8
:1009D000ADF8000001208DF8020014208DF803000E
:1009E00069460548FFF7D8FE042003491031086026
:1009F0000820086008BD00000018014070B5002400
:100A0000082012490860012001F0C6F8002518E00E
:100A10006006040E04200D49086008210B481038B8
:100A2000FFF78EFF08B144F00104052001F0B4F88F
:100A300004200649091D0860052001F0ADF8681C76
:100A4000C5B2082DE4DB204670BD0000101801403F
:100A500010B50446012C03D108200A49086003E0C0
:100A600008200849091D086004200649086005207F
:100A700001F092F804200349091D0860052001F0E7
:100A80008BF810BD1018014030B504460420114900
:100A9000086000251BE004F0800020B108200D490B
:100AA000091F086002E008200A490860042009497B
:100AB000091F0860052001F06FF80420054908604F
:100AC000052001F069F86006040E681CC5B2082D07
:100AD000E1DB30BD1418014010B50820154908604D
:100AE000052001F059F8042012490860052001F0A2
:100AF00053F808210F481038FFF722FF08B90020EB
:100B000010BD08200B49091D0860052001F044F8BC
:100B1000082108481038FFF713FF08B10020EFE75D
:100B200004200449091D0860052001F035F8012062
:100B3000E6E700001018014000B5082009490860E8
:100B400004200860052001F027F804200549091F4A
:100B50000860052001F020F808200249091F0860FC
:100B600000BD00001418014010B5002408201549EC
:100B700008600420086005E0601C84B2B4F5FA7FC8
:100B800000D106E008210F481038FFF7D9FE0028F1
:100B9000F2D100BF08210B481038FFF7D1FE28B171
:100BA00004200849091D0860002010BD052000F040
:100BB000F3FF04200349091D0860052000F0ECFF45
:100BC0000120F2E71018014008B50121080200F0E9
:100BD00041FB0220ADF8000004208DF80300032043
:100BE0008DF8020069460248FFF7D6FD08BD0000F7
:100BF000002001400146CA1701EB92729210A1EB4E
:100C0000820292B9642091FBF0F200FB121050B9FD
:100C10004FF4C87091FBF0F200FB121008B90120EC
:100C200070470020FCE70120FAE70020F8E7000009
:100C300010B510211948FFF783FE70B1082117483D
:100C4000FFF77EFE48B104211448FFF779FE20B17A
:100C500020211248FFF774FEF0B90A2000F0CAFF05
:100C600010210E48FFF76CFE08B9012010BD0821C5
:100C70000A48FFF765FE08B90220F7E70421074894
:100C8000FFF75EFE08B90320F0E720210348FFF7D5
:100C900057FE08B90420E9E70020E7E70018014003
:100CA00000BFFEE7384AD26942F00402364BDA61EF
:100CB0001A46926942F008029A61344A126822F098
:100CC0007F42324B1A601A46126842F03B421A6069
:100CD0001A1D126822F0FF021B1D1A601A461268C4
:100CE00042F0BB021A602A4A1080121F1180284A63
:100CF000143A128842F06002254B143B1A801A46BF
:100D0000128842F4C0421A801A1D128842F0600212
:100D10001B1D1A801A46128842F4C0421A801A1FFC
:100D2000128842F008021B1F1A801A46128842F4E9
:100D300000621A801A1D128842F008021B1D1A80D8
:100D40001A46128842F400621A801A1D128842F074
:100D500001021B1D1A801A46128842F010021A80E6
:100D60001A46128842F480721A801A46128842F497
:100D700080521A808022064B2C3B1A801A46128819
:100D800042F001021A80704700100240000C01403E
:100D90002C080040704710B54FF4A06000F03AF8FE
:100DA00010BD000070B5002100230F22C47804B3E9
:100DB000154C246804F4E064C4F5E064210AC1F130
:100DC0000403CA40447804FA03F1847814402143B0
:100DD00009010E4C0678A155047804F01F05012482
:100DE000AC4005786D11AD0005F1E025C5F8004176
:100DF00009E0047804F01F050124AC40044D067896
:100E0000761145F8264070BD0CED00E000E400E0EE
:100E100080E100E002490143024A1160704700008E
:100E20000000FA050CED00E070B5002419E004F1B3
:100E3000B001C8B2002100F08DF90021084600F091
:100E400089F90021102000F085F9002505E0012135
:100E5000002000F07FF9681CC5B2802DF7DB601C14
:100E6000C4B2082CE3DB70BD08B501214FF49470C7
:100E700000F0F0F94FF47840ADF8000010208DF844
:100E8000030003208DF8020069465848FFF784FCF0
:100E90004FF478415548FFF75EFD0320ADF80000A0
:100EA00069465348FFF778FC03215148FFF753FD8B
:100EB0004FF40040ADF8000069464E48FFF76CFC67
:100EC0004FF400414B48FFF746FD4FF4804147483F
:100ED000FFF741FD642000F08DFE4FF48041434850
:100EE000FFF737FD642000F085FE4FF480413F4856
:100EF000FFF731FD0021AE2000F02CF9002108465B
:100F000000F028F90021102000F024F900214020F1
:100F100000F020F90021812000F01CF90021CF20F1
:100F200000F018F90021A12000F014F90021C820D8
:100F300000F010F90021A62000F00CF90021A820F3
:100F400000F008F900213F2000F004F90021D3202F
:100F500000F000F90021084600F0FCF80021D5203F
:100F600000F0F8F80021802000F0F4F80021D920EA
:100F700000F0F0F80021F12000F0ECF80021DA2078
:100F800000F0E8F80021122000F0E4F80021DB2056
:100F900000F0E0F80021402000F0DCF800212020E3
:100FA00000F0D8F80021022000F0D4F800218D20B4
:100FB00000F0D0F80021142000F0CCF80021A4208B
:100FC00000F0C8F80021A62000F0C4F80021AF20EE
:100FD00000F0C0F80021AF2000F0BCF8FFF724FFBC
:100FE0000021084600F008F808BD0000000C014090
:100FF000001001400020014070B504460D4605F187
:10100000B001C8B2002100F0A5F8102141EA141087
:10101000002100F09FF804F00F0141F001000021D1
:1010200000F098F870BD00002DE9F04107460E462B
:10103000904600250024A8F12000C5B27F2F02DDD4
:101040000027B01CC6B231463846FFF7D5FF002452
:1010500008E004EB05110F4A505C012100F07AF81A
:10106000601CC4B2082CF4DB701CC1B23846FFF718
:10107000C3FF002409E004EB05110831054A505C68
:10108000012100F067F8601CC4B2082CF3DBBDE856
:10109000F08100009A2B00082DE9FF5F074691467A
:1010A0001D460E9E4FF0000A002433E0281B401E10
:1010B000C1B20A2000F0C0FFB9FBF0F00A21B0FB7A
:1010C000F1F201FB1208BAF1000F13D1681EA04221
:1010D00010DDB8F1000F0BD1B34606EBDB71491000
:1010E00001FB0471C8B220220199FFF79DFF0FE0B8
:1010F0004FF0010AB34606EBDB71491001FB0471A6
:10110000C8B208F13001CAB20199FFF78DFF00BFE4
:10111000601CC4B2AC42C9DBBDE8FF9F2DE9F041C1
:1011200004460F46154600260EE0AA5D39462046C5
:10113000FFF77AFF04F10800C4B2782C02DD002426
:10114000B81CC7B2701CC6B2A85D0028EDD1BDE8BE
:10115000F081000070B504460E462EB14FF40041F8
:101160001C48FFF7F8FB04E04FF400411948FFF773
:10117000F0FB4FF400611748FFF7EBFB00251BE085
:101180004FF480511348FFF7E4FB04F0800028B1CE
:101190004FF400510F48FFF7DEFB04E04FF400511D
:1011A0000C48FFF7D6FB4FF480510A48FFF7D3FBFA
:1011B0006006040E681CC5B2082DE1DB4FF4006127
:1011C0000448FFF7C8FB4FF400410248FFF7C3FB98
:1011D00070BD0000000C01400A48006840F00400A7
:1011E000084908600846006840F0020008600648A8
:1011F000006840F004000449086000BF00BF30BF31
:10120000704700000070004010ED00E001490860E8
:1012100070470000A0000E42704700000146002009
:10122000034A506820F44040084350607047000073
:101230000010024029B1064AD2690243044BDA6128
:1012400004E0034AD2698243014BDA61704700002F
:101250000010024029B1064A92690243044B9A6188
:1012600004E0034A92698243014B9A61704700008F
:101270000010024029B1064AD2680243044BDA60EA
:1012800004E0034AD2688243014BDA6070470000F1
:1012900000100240024909888143014A11807047C9
:1012A0000428004070B500260024002500F07AF8DC
:1012B00006463848B6FBF0F437480088A0423CD0D8
:1012C00035490C8040F2B27510E02846FFF792FCD9
:1012D00040B1B4F5B77F02D3A4F5B77404E0681C3D
:1012E00085B206E0A4F26D14681C85B2B4F5B67F31
:1012F000EBD800BF29488580002516E0274988885B
:10130000FFF778FC30B1012D04D11D2C01D31D3C19
:1013100009E00CE02248405DA04203D82048405D2F
:10132000241A00E003E0681C85B21C2CE6D200BF42
:10133000681C1A498871601CC8711648B6FBF0F128
:1013400000FB11644FF46160B4FBF0F013490870C6
:101350004FF46160B4FBF0F100FB11403C21B0FBA5
:10136000F1F00E4948704FF46160B4FBF0F100FBFE
:1013700011403C21B0FBF1F201FB120007498870DB
:101380000B46DA799979988800F028F803490872B1
:10139000002070BD805101006E0B00207C0B0020EE
:1013A00096310008002103480188001F008841EAA7
:1013B000004070471C28004001460020064A128861
:1013C0000A40D0B2044A121F12880A4012B108B172
:1013D000012000E00020704704280040F0B50346DB
:1013E0000C461546642093FBF0F0C6B2642093FBD4
:1013F000F0F700FB1730C1B2132E02DD01F16400DB
:10140000C1B20846CF1701EB977701EBA707BAB235
:10141000072092FBF0F700FB172082B25719601EDD
:10142000DFF82CC01CF80000384482B2CF1701EB63
:101430009777BF10A1EB87071FB9032C01DA501E65
:1014400082B2072092FBF0F700FB1720C0B2F0BD7C
:101450008A31000810B50120FFF7AEFF08B1FFF791
:1014600021FF0220FFF7A8FF10B10220FFF712FFB3
:101470000520FFF70FFF00F001F810BD00BF034883
:10148000008800F020000028F9D0704704280040B0
:1014900070470000214A926942F400621F4B9A6132
:1014A0001A46926942F004029A611D4A126822F4B7
:1014B00070421B4B1A601A46126842F430421A609E
:1014C000184A1080121F1180164A103A128842F4EE
:1014D000C042144B103B1A801A46128842F4006234
:1014E0001A801A1D128842F480521B1D1A800D4A60
:1014F0001832128842F400420A4B18331A808022B4
:10150000084B2C3B1A801A46128842F001021A80BE
:1015100040F2EE22034B14331A8070470010024051
:10152000040801402C2C014010B500F001F810BD5A
:101530000CB50020019000903348006840F48030E2
:101540003149086000BF3048006800F40030009066
:101550000198401C0190009818B90198B0F5A06F4F
:10156000F1D12948006800F4003010B1012000904A
:1015700001E0002000900098012843D12348006832
:1015800040F01000214908600846006820F0030080
:1015900008600846006840F0020008601A48406889
:1015A000194948600846406848600846406840F469
:1015B000806048600846406820F47C104860084617
:1015C000406840F4E81048600846006840F08070C9
:1015D000086000BF0C48006800F000700028F9D0D7
:1015E0000948406820F00300074948600846406801
:1015F00040F00200486000BF0348406800F00C0063
:101600000828F9D10CBD0000001002400020024063
:101610002DE9F04106460F4614461D46FFF75CFAD9
:1016200020B9FFF789FA0020BDE8F0813046FFF7C6
:101630002BFAFFF799FA18B9FFF77EFA0020F3E7C3
:101640003846FFF721FAFFF78FFA18B9FFF774FA57
:101650000020E9E7FFF740FA18B9FFF76DFA00201C
:10166000E2E7711CC8B2FFF70FFAFFF77DFA18B96D
:10167000FFF762FA0020D7E708E0FFF7BFF904F8A8
:10168000010B0020FFF7E4F9681EC5B2681E0028B0
:10169000F3D1FFF7B3F920700120FFF7D9F9FFF775
:1016A0004BFA0120C0E7042808D14FF0E021096976
:1016B00041F004014FF0E022116107E04FF0E0211A
:1016C000096921F004014FF0E02211617047704771
:1016D00010B500214FF4FE70FFF7CCFD00F001F8CB
:1016E00010BD10B501210807FFF7A4FD0120FFF789
:1016F0008DFDFFF771FD10BD10B51348006840F077
:1017000001001149086008464068104908400E4928
:101710004860084600680E4908400B4908600846C2
:10172000006820F4802008600846406820F4FE002D
:1017300048604FF41F008860FFF7F6FE4FF000602E
:101740000449086010BD0000001002400000FFF8CE
:10175000FFFFF6FE08ED00E010B50121880700F05C
:1017600089F818B10121880700F072F810BD000057
:1017700010B501210B4800F07DF888B1012109481E
:1017800000F066F82021084800F0A1FC322000F0AB
:1017900031FA2021044800F076FC322000F02AFAC9
:1017A00010BD000000040040000C01407FB505465C
:1017B0000C4601210820FFF73DFDADF80850ADF8BB
:1017C00004400020ADF80A00ADF8060001A90D485C
:1017D00000F06CF8012211460A4800F05CF8322053
:1017E0008DF8000000208DF8010001208DF8020026
:1017F0008DF803006846FFF7D5FA0121014800F093
:101800002AF87FBD000C004010B50E48008800F09B
:10181000010078B10A210120FFF7BAF80A490860EF
:101820000846006818B101200849086002E000205D
:10183000064908600348008820F00100014908803B
:1018400010BD0000100C00403C0B0020300B0020AD
:10185000CA430282704721B1028842F0010202802D
:1018600004E002884FF6FE731A400280704701467A
:10187000888C704730B50246002000230024158A6A
:1018800005EA0103958905EA010413B10CB10120B1
:1018900000E0002030BD1AB183890B43838102E050
:1018A00083898B438381704781847047002202883B
:1018B0001D4B98420ED01D4B98420BD0B0F1804F7B
:1018C00008D01B4B984205D01A4B984202D01A4BB5
:1018D000984204D14FF68F731A404B881A43174B26
:1018E000984207D0164B984204D04FF6FF431A4057
:1018F000CB881A4302808B8883850B8803850A4B2B
:1019000098420BD0094B984208D00E4B984205D014
:101910000D4B984202D00D4B984201D10B7A0386B1
:101920000123838270470000002C014000340140F5
:101930000004004000080040000C0040001000407F
:1019400000140040004001400044014000480140B4
:101950007FB504460D4601210846FFF76BFC41F2B6
:101960008830ADF8080041F61F40ADF804000020B3
:10197000ADF80A00ADF8060001A94FF08040FFF76E
:1019800095FF012241218807FFF785FF1C208DF874
:10199000000000208DF8010003208DF802000120D6
:1019A0008DF803006846FFF7FDF97FBD10B540F2E2
:1019B00025511D4800F04CF810B31B4800F072F898
:1019C000C4B21A48008800F40040C8B9174800881B
:1019D00000F4804060B10A2C03D000201349088035
:1019E00020E01248008840F400401049088019E0C7
:1019F0000D2C06D10D48008840F480400B4908802A
:101A000010E00A480088C0F30D0009490C5407484B
:101A10000088401C0549088008460088C72801DD69
:101A20000020088010BD000000380140780B002025
:101A3000860B002010B540F22551044800F008F84C
:101A400018B1024800F02EF8C4B210BD00480040A2
:101A500070B50246002400230025002040F66A16D7
:101A6000B14200D100BFC1F3421501F01F030126AE
:101A700006FA03F3012D02D19689334006E0022DC8
:101A800002D1168A334001E0968A33400C120126B7
:101A900006FA04F41688344013B10CB1012000E0BA
:101AA000002070BD01468888C0F308007047000020
:101AB0001FB501211F48FEF7FBFE01211120FFF792
:101AC000C9FB4FF48070ADF80C0010208DF80F00AA
:101AD00003208DF80E0003A91748FEF75DFE802055
:101AE000ADF80C0028208DF80F0003A91248FEF76E
:101AF00053FE07210220FEF72FFE802001900020D8
:101B00008DF8080008208DF8090001208DF80A00E2
:101B100001A8FEF7D7FD17208DF8000002208DF8F0
:101B200001008DF8020001208DF803006846FFF7E0
:101B300039F91FBD000230000010014010B54FF40C
:101B400080710648FEF707FF642000F079F84FF433
:101B500080710248FEF7FDFE10BD0000001001403C
:101B600000BFFEE70020014908607047082C0040D4
:101B700010B50348007800F005F8FFF7F3FF10BD3B
:101B80006C0B002000F07F01014A116070470000DB
:101B9000002C004000BF7047032101FB00F2D0B2CF
:101BA00000BF021EA0F10103D8B2FAD170470000B5
:101BB00010B56FF00400FFF776FD0A4800680A4987
:101BC000B0FBF1F0094908700846007800EB4001CD
:101BD000C1EBC0104FF6FF7101EAC0000449088054
:101BE00010BD0000580B002000127A00700B00207E
:101BF000720B00200146114A12884A434FF0E0233D
:101C00005A6100229A611A46126942F001021A6171
:101C100000BF4FF0E022106900F001021AB100F499
:101C20008032002AF5D04FF0E022126922F0010242
:101C30004FF0E0231A6100229A617047720B002076
:101C40000146114A12784A434FF0E0235A610022BC
:101C50009A611A46126942F001021A6100BF4FF000
:101C6000E022106900F001021AB100F48032002A6B
:101C7000F5D04FF0E022126922F001024FF0E0238C
:101C80001A6100229A617047700B002010B5FFF7AF
:101C900082F8FFF78DFFFFF7E7F8FEF709FC10BDAC
:101CA00008B501214420FFF7D5FA3C20ADF800002B
:101CB00048208DF8030003208DF80200694607488C
:101CC000FEF76AFD28208DF803000120ADF8000022
:101CD00069460348FEF760FD08BD0000001801409A
:101CE000000801408CB0002009900A900B9000BFC2
:101CF000059006900790089003900490029000BF12
:101D000000BF0024FFF7C2FF002141F61F40FEF78D
:101D1000C9FF902142F20F70FFF7BCFB40F2CF21C8
:101D200041F61F40FFF742FD002141F61F40FFF73B
:101D30000FFEFFF7BDFEFFF7B3FFFEF745FFFEF70F
:101D400041FE0120FFF756FF42F28F20AA4908808A
:101D50004FF44870A9490860A94908604BE1FFF7B2
:101D6000EDFEA8480068012840D1A7A2012108463D
:101D7000FFF7D4F9A648006800F016FCA5490860F2
:101D8000A348006800F010FCA3490860102003235A
:101D90000090A048012102682820FFF77DF99D48A6
:101DA000006800F01DFC054699480168284600F0CF
:101DB00060FD9749086099499548006800F05CFC0F
:101DC000934908600846006800F0EEFB91490860FE
:101DD0002E2201214120FFF727F910200223009035
:101DE0008C48012102684620FFF756F9FEF720FFD4
:101DF00003280DD18048008842F21071884202D138
:101E00007D49088004E07C48008832307A490880A7
:101E1000FEF70EFF02280FD17748008841F65831AF
:101E2000884204D14FF42F707349088004E072484F
:101E30000088323870490880FEF7FAFE012813D175
:101E40006E480068C8306D4908606D480068C83049
:101E50006B49086069480068B0F5E15F04D1C820AB
:101E60006649086066490860FEF7E2FE04280BD167
:101E7000FEF7DAFF6A48006818B90120684908606F
:101E800002E00020664908605C48006800280ADA21
:101E90004FF4E150634908805848008800F5E1504C
:101EA000091D08800AE04FF4E1505E49091D0880D1
:101EB00052480068C0F5E150091F0880504800688A
:101EC00000280BDA4FF4E1505649083108804C489D
:101ED000008800F5E150091D08800AE04FF4E15048
:101EE00050490C31088046480068C0F5E150091F90
:101EF00008804B480068002861D1012309AA0F21FE
:101F0000B420FFF785FB18B19DF824000446079024
:101F1000102003232246194600901E20FFF7BCF82C
:101F2000042C06DC002C04DB002034490860344912
:101F30000860062C07DD202C05DC4FF448702F4983
:101F400008602F490860032309AA0C21B420FFF779
:101F50005FFB58B19DF824008DF808009DF825001E
:101F60008DF809009DF826008DF80A002A480068BF
:101F7000092804DA42F22E201F49088003E042F2C9
:101F80008F201D490880102000909DF80820032311
:101F900005210A20FFF780F8102000909DF8092005
:101FA000032305212820FFF777F8102000909DF8E3
:101FB0000A20032305214620FFF76EF81BE01AA232
:101FC00003210420FFF7AAF8102000900A48028895
:101FD000052303213C20FFF75FF815A206210846E0
:101FE000FFF79CF8102005230090044806210268A2
:101FF0003C20FFF751F8B2E6402C0140080B0020CE
:102000000C0B00202C0B0020646973743A00000054
:10201000380B0020400B0020340B00200000C84289
:10202000540B002034080040534552564F00000026
:10203000737065656400000010B50246012000E081
:1020400050430B1EA1F10104E1B2F9D110BD2DE9FD
:10205000F84307460D4616461C46DDF82080012150
:102060004046FFF7F7F8ADF800408DF803508DF8C3
:10207000026069463846FEF78FFB21463846FEF778
:102080006AFCBDE8F88370B504460D462946204633
:10209000FEF761FC70BD2DE9F84307460D46164674
:1020A0001C46DDF8208001214046FFF7D3F8ADF84B
:1020B00000408DF803508DF8026069463846FEF7FF
:1020C0006BFB21463846FEF744FCBDE8F88370B54B
:1020D00004460D4629462046FEF73BFC70BD000035
:1020E00021F00042A2F16052B2F5801F01F00043DE
:1020F00028BFD2F17F6C0BD95FEA001C43EAC20211
:1021000042EB507018BF704728BF20F001007047A5
:10211000B2F5801FBCBF184670474FEA410C1CF552
:10212000001F02D2084600F06EBB70B500F079F9CE
:1021300000000089FFF7F6BF4FF00040A0F58000D7
:10214000704700002DE9C04130B4DFF8A0C23CEA7E
:10215000111418BF3CEA131400F0EC8081EA030567
:102160001CEA111444EAD57418BF1CEA131500F0D8
:10217000C780A4EB05044FF0004545EAC12145EABC
:10218000C32341EA505143EA525304F17F74994208
:1021900004F500344FEAC0204FEAC22208BF904243
:1021A00000F09C804FEA13650FF24016765D4FEA0F
:1021B000134506FB05F7C7F1807706FB07F74FEAE3
:1021C000D737A7FB03687642C8F58038A7FB06CE51
:1021D00038BFA8F1010807FB08E64FF0000EA6FB88
:1021E000028CE6FB03CEDCF1000CCEF1004E38BFD2
:1021F000AEF1010EA6FB0C584FF000074FF00005A2
:10220000E6FB0E87A1FB08C6A0FB07CE16EB0E0669
:1022100045F10005E1FB076515F1E04E7EBFA4F531
:1022200080345FEA46066D4116F1800745F10005EE
:102230004FEA17274FEA066647EA0567A6F1DE462A
:10224000B6F1805F4FEA15251FD9384624F0010CFE
:1022500005EBC471BCF1FE6F01EB0C1102D8F0BCB0
:10226000BDE8008124425CBF01F5801E9EEAC47F68
:1022700002D4F0BCBDE80081244238D4F0BCA1F106
:10228000C041BDE8004100F01AB94FEAD22242EA4B
:1022900043524FEAD323A7FB02864FEAD02040EAFD
:1022A000415007FB03661EEA0E0F4FEAD12105FBE2
:1022B000026658BFA6EB0056B6EB00564FEA520E28
:1022C0004EEAC37E18EB0E0E56EB530EBDD518EB3F
:1022D00002085E417F1C55F10005B6E74FF48015FA
:1022E0004FF000074FF000064FF00008ADE7F0BCDC
:1022F0004FF0000001F1C04101F00041BDE8008154
:1023000011EA0C1F0CEA131500D00CE013EA0C1FA5
:1023100000F025804FF00000F0BC81EA030101F0DD
:102320000041BDE80081F0BCBDE8004181EA030145
:1023300000F0C5B8F0BCBDE8004170B500F071F820
:10234000097EFC3E00F007B881EA03014FF000006F
:1023500001F00041704781EA030100F0B0B8F0BC21
:10236000BDE800414FF0000021497047FFFDFBF937
:10237000F7F5F4F2F0EEEDEBE9E8E6E4E3E1E0DEB8
:10238000DDDBDAD8D7D5D4D3D1D0CFCDCCCBCAC82A
:10239000C7C6C5C4C2C1C0BFBEBDBCBBBAB9B8B751
:1023A000B6B5B4B3B2B1B0AFAEADACABAAA9A8A844
:1023B000A7A6A5A4A3A3A2A1A09F9F9E9D9C9C9B12
:1023C0009A999998979796959594939392919190BD
:1023D0008F8F8E8E8D8C8C8B8B8A8989888887874E
:1023E0008685858484838382828181800000FF07C3
:1023F0000000F87F10F0004248BF4042B0FA80F37E
:1024000010FA03F10AD0C3F11D0303F580634FEA0C
:10241000415002EB035202EBD12170474FF0000014
:1024200070470EF1020E2EF0030E5EF8046B36427A
:1024300005D4012A43EB030515F5001F12D8012826
:1024400041EB010C1CF5001F0CD80ED14FEAD17CDA
:1024500015F5001F0CEB4C0C0CF1020C08BF4CEBFB
:10246000D37C04E04FF0080C01E04FEAD37C0CEB86
:102470004C0526FA05F606F00706B6F1040C06D25E
:102480000EEB860CBDE870404CF0010C6047DFE8B5
:102490000CF0090B02024FF000414FF00000A1F5D3
:1024A000002170BD19461046012851EB010418BFE8
:1024B000D4F5001484BF002001F0004170BD08086D
:1024C000A0F500114FEA31017047000090EA010FBA
:1024D00048BF81F0004100F1DE81421A3CBF801A02
:1024E00089184FEAD0524FF07F4C1CEA410FA2EB03
:1024F000D15318BF9CEA026F00F03B804FF0004CB4
:102500004CEA00204CEA012121FA03FC10EB0C0CF0
:102510001ED202F1FF325FEA1C2040EBC25038BFEE
:1025200070471CF07F0F4FEA400C18BFBCF17F4F83
:1025300038BF7047C3F12003994008BF20F0010065
:10254000BCF17F4F38BF7047A0F1C04000F05BB9CD
:102550004FEA3C00000A40EBC25028BF1CF0FF0FBE
:102560004FEA400CE6D018BFBCF17F4F38BF704730
:10257000EAE79CEA026F05D010EA5C0F08BF00F0A2
:102580000040704710B500F0F8F800BF64FBBE3E95
:10259000401058BFC0F14040491058BFC1F1404100
:1025A0008142EFF30080704741000B0ED3F19E0291
:1025B00008D950F400034FEA032323FA02F048BF7E
:1025C0004042704710B500F0D8F800BF499224800F
:1025D000002070476FF0004282EA20007047000040
:1025E00010F0004148BF4042B0FA80F310FA03F205
:1025F000C3F19D030BD051EAC35101EB12205306E6
:1026000038BF704700F1010008BF20F0010070479B
:1026100050EA010C00F113801CF5000F58BFBCF507
:10262000000F01D48842704707D710F5000F58BF3C
:1026300011F5000F15D488427047894270471CF588
:10264000000F04D5BCF5000FF7D5814270474FF05D
:10265000807C1CEB400F38BF1CEB410F01D2814244
:10266000704710B500F089F8922449004FF00050EF
:102670004FF08051FFF78CBF4FF47F0C1CEAD01253
:102680001EBF1CEAD11392EA0C0F93EA0C0F00F064
:10269000478090EA010F48BF42F480724FF0004C2F
:1026A0004CEA00204CEA012102EB0302A0FB0113DB
:1026B000A2F50002002918BF43F001035B0028BF08
:1026C0004FEA330342EB22425FEA132C4CEBC25039
:1026D0002EBFBCEB436FB2F57C0F70474FEA036C23
:1026E000BCF1004F08BF20F00100B2F57C0F38BFED
:1026F00070470BD582F0FF0212F5803FC8BF7047CC
:1027000000F1C040D8BF00F00040704700F5000C59
:102710005FEA4C0C48BF7047B0F1C04000F073B89E
:1027200090EA010F0CEAD11348BF42F4807262456F
:1027300038BF634504D280EA010000F000407047D2
:1027400010B500F01AF800BF8900013E00F007B88C
:1027500000F009B85FEA410C5FEA1C6C08D080EA1F
:10276000010000F050B85FEA400C5FEA1C6CF6D143
:102770004FF00040A0F5800070470EF1020E2EF0E1
:10278000030E5EF8044B244204D44FEA4102B2F136
:102790007F4F11D84FEA4003B3F17F4F0CD80ED1D1
:1027A0004FEAD07CB2F17F4F0CEB4C0C0CF1020CD9
:1027B00008BF4CEBD17C04E04FF0080C01E04FEA7D
:1027C000D17C0CEB4C0324FA03F404F00704B4F1BD
:1027D000040C06D20EEB840CBDE810404CF0010C4A
:1027E0006047DFE80CF0070802024FF00040A0F558
:1027F000800010BD0846420018BFD2F1807288BF29
:1028000000F0004010BDFF2141EAD050C0057047E4
:1028100051EA000C00F113801CF5000F58BFBCF505
:10282000000F01D48142704707D711F5000F58BF40
:1028300010F5000F15D481427047894270471CF58E
:10284000000F04D5BCF5000FF7D5884270474FF054
:10285000807C1CEB410F38BF1CEB400F01D288423B
:10286000704780EA010081EA000180EA0100FFF779
:10287000F8BE80F0004090EA010F7FF52EAE81F0A7
:10288000004100F008B8000090EA010F48BF81F055
:1028900000413FF522AE421A04D882F00042A0EB7C
:1028A000020011444FEAD0524FF07F4C1CEA410F16
:1028B000A2EBD15318BF9CEA026F4AD04FF0004CF4
:1028C0004CEA00204CEA012121FA03FCB0EB0C0C8D
:1028D0000FD412F0FE0F36D05FEA4C001DD5001267
:1028E00040EBC25038BF70471CF03F0F18BF704715
:1028F0000BE0A2F101025FEA1C2040EBC25038BF9E
:1029000070471CF07F0F18BF7047C3F12003994038
:1029100014BF401E20F00100704780084FEA1223C8
:1029200008BF7047B0FA80FCA2EB0C02CCF1280C77
:1029300060FA0CF093EA122F04BF00EBC25070470C
:102940004FEAC3707047130A5FEADC1008BF704794
:10295000F6E79CEA026F04D010EA5C0F08BF002083
:10296000704710B5FFF709FF40DFF63E81F00040E9
:1029700070470000000000000000002F0000000071
:102980000700070000147F147F1400242A7F2A12F6
:1029900000626408132300364955225000000503E5
:1029A000000000001C224100000041221C00001415
:1029B000083E08140008083E0808000000A0600057
:1029C00000080808080800006060000000201008E7
:1029D0000402003E5149453E0000427F4000004253
:1029E00061514946002141454B31001814127F10B6
:1029F000002745454539003C4A49493000017109E5
:102A0000050300364949493600064949291E000098
:102A1000363600000000563600000008142241003F
:102A2000001414141414000041221408000201516F
:102A3000090600324959513E007C1211127C007F78
:102A400049494936003E41414122007F4141221C13
:102A5000007F49494941007F09090901003E414978
:102A6000497A007F0808087F0000417F410000206C
:102A700040413F01007F08142241007F4040404018
:102A8000007F020C027F007F0408107F003E41415E
:102A9000413E007F09090906003E4151215E007F49
:102AA000091929460046494949310001017F0101C0
:102AB000003F4040403F001F2040201F003F403863
:102AC000403F0063140814630007087008070061A2
:102AD0005149454300007F41410000552A552A5580
:102AE000000041417F000004020102040040404018
:102AF0004040000001020400002054545478007F3C
:102B00004844443800384444442000384444487F12
:102B100000385454541800087E0901020018A4A477
:102B2000A47C007F080404780000447D400000403D
:102B300080847D00007F102844000000417F400019
:102B4000007C04180478007C0804047800384444AD
:102B5000443800FC242424180018242418FC007C89
:102B60000804040800485454542000043F44402002
:102B7000003C4040207C001C2040201C003C403099
:102B8000403C004428102844001CA0A0A07C004425
:102B900064544C4414141414141400000000000075
:102BA00000000000000000000000000000F800002D
:102BB0000000000000333000000000100C06100C74
:102BC0000600000000000000000040C07840C0780F
:102BD0004000043F04043F040400007088FC0830F7
:102BE0000000001820FF211E0000F008F000E0188F
:102BF000000000211C031E211E0000F00888700048
:102C000000001E2123241927211010160E00000099
:102C100000000000000000000000000000E01804B8
:102C20000200000000071820400000020418E00025
:102C300000000040201807000000404080F0804065
:102C400040000202010F01020200000000F000003B
:102C500000000101011F010101000000000000004F
:102C6000000080B0700000000000000000000000C4
:102C7000000000010101010101010000000000004D
:102C80000000003030000000000000000000806004
:102C90001804006018060100000000E01008081089
:102CA000E000000F102020100F00001010F80000AE
:102CB00000000020203F2020000000700808088845
:102CC0007000003028242221300000300888884815
:102CD00030000018202020110E000000C02010F845
:102CE000000000070424243F240000F80888880816
:102CF00008000019212020110E0000E0108888181B
:102D00000000000F112020110E0000380808C838FC
:102D100008000000003F00000000007088080888DC
:102D20007000001C222121221C0000E01008081065
:102D3000E0000000312222110F00000000C0C0009E
:102D400000000000003030000000000000800000A3
:102D500000000000806000000000000080402010A3
:102D6000080000010204081020004040404040409C
:102D700040000404040404040400000810204080FF
:102D80000000002010080402010000704808080834
:102D9000F0000000003036010000C030C828E81004
:102DA000E0000718272423140B000000C038E000BF
:102DB0000000203C23020227382008F88888887009
:102DC0000000203F202020110E00C0300808080815
:102DD0003800071820202010080008F808080810FC
:102DE000E000203F202020100F0008F88888E80825
:102DF0001000203F20202320180008F88888E808C9
:102E00001000203F200003000000C03008080838F0
:102E1000000007182020221E020008F80800000801
:102E2000F808203F210101213F20000808F8080888
:102E300000000020203F2020000000000808F808C3
:102E40000800C08080807F00000008F888C0281833
:102E50000800203F20012638200008F80800000064
:102E60000000203F20202020300008F8F800F8F86B
:102E70000800203F003F003F200008F830C0000855
:102E8000F808203F200007183F00E010080808104D
:102E9000E0000F10202020100F0008F80808080894
:102EA000F000203F210101010000E0100808081097
:102EB000E0000F18242438504F0008F888888888CC
:102EC0007000203F2000030C3020007088080808A4
:102ED00038000038202121221C00180808F80808B2
:102EE00018000000203F2000000008F8080000083B
:102EF000F808001F202020201F000878880000C844
:102F00003808000007380E010000F80800F8000833
:102F1000F800033C0700073C03000818688080683D
:102F2000180820302C03032C30200838C800C8387B
:102F300008000000203F2000000010080808C838E2
:102F400008002038262120201800000000FE020280
:102F500002000000007F40404000000C30C0000034
:102F60000000000000010638C00000020202FE005E
:102F70000000004040407F00000000000402020208
:102F8000040000000000000000000000000000003D
:102F90000000808080808080808000020204000029
:102FA0000000000000000000000000008080808021
:102FB00000000019242222223F2008F8008080000F
:102FC0000000003F112020110E00000000808080D2
:102FD0000000000E112020201100000000808088D9
:102FE000F800000E112020103F200000808080801B
:102FF0000000001F222222221300008080F0888817
:1030000088180020203F2020000000008080808061
:103010008000006B94949493600008F80080808096
:103020000000203F210000203F20008098980000F1
:1030300000000020203F2020000000000080989821
:10304000000000C08080807F000008F800008080C1
:103050008000203F24022D302000000808F80000E6
:1030600000000020203F20200000808080808080A1
:103070008000203F20003F20003F80800080808033
:103080000000203F210000203F2000008080808041
:103090000000001F202020201F0080800080800072
:1030A000000080FFA12020110E0000000080808021
:1030B0008000000E112020A0FF8080808000808092
:1030C000800020203F2120000100000080808080BF
:1030D00080000033242424241900008080E08080B4
:1030E00000000000001F2020000080800000008001
:1030F0008000001F202020103F2080808000008062
:10310000808000010E300806010080800080008071
:1031100080800F300C030C300F0000808000808016
:1031200080000020312E0E31200080808000008041
:10313000808080818E7018060100008080808080F1
:1031400080000021302C2221300000000000807C13
:10315000020200000000003F404000000000FF00AD
:10316000000000000000FF0000000002027C800060
:1031700000000040403F0000000000060101020284
:103180000404000000000000000000030306010426
:103190000602050003051F1C1F1E1F1E1F1F1E1FEA
:1031A0001E1F0000C4310008000000207C0B00003E
:1031B0006C0100081C3600087C0B0020340700005E
:1031C000D001000840120003050911FF118905C351
:1031D00000E000F000F8000100083A4428FF11AABE
:1031E000440001500B830138448292927401831190
:1031F00020087C44FF017D7D7D04410540047D0164
:10320000FF6E920102613F033B01017E81419149C2
:10321000F20101011BC230083F3F0303F313110108
:10322000100601F1116181402005816111F14733E0
:10323000414107200401C12120A321C114311931CA
:1032400037040736D33303033F3F426006E0E00014
:10325000007FA8127FBF40040618060A100800006D
:1032600040407F4040A410041F204001A3201F14B1
:103270003300600E6004300C03460534C2100407AE
:10328000070601700904040484444444840780054B
:103290000484C4041501120A71112140073D070777
:1032A000C9200F0000101814121100000F10101088
:1032B0000F0F131F1015600D081012120D000018CB
:1032C00000000D120A51295130015E0152800101A6
:1032D0003B4514047F030CA915DE1C0538545458D3
:1032E0002503080A2004047800003C40407C2000AC
:1032F000092CFFAAAAAA280800FF68100626494937
:103300004932101005020408100F0D6F00049D01D2
:10331000040D9D0004156343F80801240500F81806
:1033200060E82404806018235720202923E010211E
:10333000A310E01449B4313908043C886818630DBF
:1033400015FF037DEA039DFF0371144DFF031D0666
:10335000043D2E040942E91C0640202020C04A04F6
:10336000110721EA3E40520452600E811871295122
:10337000070D4769031C060C0A0A090C0004156BAB
:103380002D00042004080F081510050809090E0770
:103390001D180430050909090F0A512951070DFFAD
:1033A00000040D2200047008015C004000C0FF0111
:1033B0008004F0F03F0C83F80B1883E803187004C6
:1033C000FE007F1860046E00020C1C0FD0FFC000CE
:1033D0001BB75FFFEFDFFFFF80F3BE061006031F82
:1033E000FF00BF0C3AFB325C08080017FFFE307F7D
:1033F0003B035C07017FF680FCFCE2056C060F0CCA
:1034000000BFBBA607880510002FFF3F8FFFFFC13D
:10341000068FFFFF6403927F0C9004FFFDEC0C828B
:10342000CF0C73EFD74911A0710C7004EFFFEF556B
:103430007004FFFFEB0C70053FFEF7D00C6FFFEF41
:103440000E095005103FFFF9AA400701700FFFF564
:10345000FEB55C060DF00FFFF7C308273FF01F3DD8
:103460000B06400703FFF001FFFB6D240403FFB0D0
:103470002B1DC907101020002FF7F0003FFDFFF0B3
:103480000000E218BF18274FFF0B17A57B44100A56
:103490000107FF7FFC000E83AB0C113424069FF65E
:1034A000003FF75C21C24005FF003F970C34127FBC
:1034B000C7FF81BFEFFDEFFFF0800E3FF9FEC3FEB7
:1034C0008014073FFF87E077FB7F115B140DFF9BA4
:1034D00078FE1DFFF6DF6DFF9F70911C2CFE01FF33
:1034E000FC77BFFDFEE0FFB9E1A789FDFC0003A664
:1034F0007FF0FFF8A8A92551E00800418100DFFA1C
:103500000006BFCC002815F047064C06F8000786D9
:103510001052034407FE7F4007FF803B2C072FCF4C
:103520008007FC036C08147D7C30A22000DFCC0CEB
:103530000E800804FD00C27A7CC5F03801C810591D
:10354000AC70DFD17B00C083B000442F9C306FC8CB
:10355000DEA3009BC000A53859F08FF9FFF6018F5C
:10356000C03980FD2E80B3F9F7FC01DD001000F9B1
:103570005710ADFFE04C01D413004021BDD099FF9E
:10358000DF8C00E880003A3F6F105F3FF39000F15E
:10359000108C23FF81F097D63E7800FA01B78AFF9E
:1035A0005BF0A58F431812FC0139CDFFFBF07DCDF8
:1035B0007E5000FB0F57CFFA88141E8C66E100F88E
:1035C000684BCFFFF5E0DFFD27E0007F6F9FFDFF39
:1035D000BDD0FBA7F5C000730B0C2950FFBAE0FF6C
:1035E000BDBFC0006DFE7FFBFCF330F74AEF8000EB
:1035F0007B57FFDFFFBE80FBFF9E04083DC1FFFB42
:10360000E5DCF0011D087C04A24A04770ADC09020B
:0C3610000304060708097F930400000073
:0400000508000215D8
:00000001FF
